{
  "_format": "hh-sol-artifact-1",
  "contractName": "Upload",
  "sourceName": "contracts/Upload.sol",
  "abi": [
    {
      "inputs": [
        {
          "internalType": "address",
          "name": "_user",
          "type": "address"
        },
        {
          "internalType": "string",
          "name": "url",
          "type": "string"
        }
      ],
      "name": "addUser",
      "outputs": [],
      "stateMutability": "nonpayable",
      "type": "function"
    },
    {
      "inputs": [
        {
          "internalType": "address",
          "name": "user",
          "type": "address"
        }
      ],
      "name": "allowAccess",
      "outputs": [],
      "stateMutability": "nonpayable",
      "type": "function"
    },
    {
      "inputs": [
        {
          "internalType": "address",
          "name": "_user",
          "type": "address"
        }
      ],
      "name": "displayImages",
      "outputs": [
        {
          "internalType": "string[]",
          "name": "",
          "type": "string[]"
        }
      ],
      "stateMutability": "view",
      "type": "function"
    },
    {
      "inputs": [
        {
          "internalType": "address",
          "name": "user",
          "type": "address"
        }
      ],
      "name": "revokeAccess",
      "outputs": [],
      "stateMutability": "nonpayable",
      "type": "function"
    },
    {
      "inputs": [],
      "name": "shareAccess",
      "outputs": [
        {
          "components": [
            {
              "internalType": "address",
              "name": "user",
              "type": "address"
            },
            {
              "internalType": "bool",
              "name": "access",
              "type": "bool"
            }
          ],
          "internalType": "struct Upload.Access[]",
          "name": "",
          "type": "tuple[]"
        }
      ],
      "stateMutability": "view",
      "type": "function"
    }
  ],
  "bytecode": "0x6080604052348015600f57600080fd5b506113ac8061001f6000396000f3fe608060405234801561001057600080fd5b50600436106100575760003560e01c80632543c6931461005c5780634b68d4311461008c57806385e68531146100a8578063bc8bef81146100c4578063c4a85bc1146100e2575b600080fd5b61007660048036038101906100719190610b60565b6100fe565b6040516100839190610cdf565b60405180910390f35b6100a660048036038101906100a19190610e36565b610314565b005b6100c260048036038101906100bd9190610b60565b610389565b005b6100cc6105a5565b6040516100d99190610f9a565b60405180910390f35b6100fc60048036038101906100f79190610b60565b6106ae565b005b60603373ffffffffffffffffffffffffffffffffffffffff168273ffffffffffffffffffffffffffffffffffffffff1614806101c05750600160008373ffffffffffffffffffffffffffffffffffffffff1673ffffffffffffffffffffffffffffffffffffffff16815260200190815260200160002060003373ffffffffffffffffffffffffffffffffffffffff1673ffffffffffffffffffffffffffffffffffffffff16815260200190815260200160002060009054906101000a900460ff165b6101ff576040517f08c379a00000000000000000000000000000000000000000000000000000000081526004016101f69061103f565b60405180910390fd5b6000808373ffffffffffffffffffffffffffffffffffffffff1673ffffffffffffffffffffffffffffffffffffffff168152602001908152602001600020805480602002602001604051908101604052809291908181526020016000905b8282101561030957838290600052602060002001805461027c9061108e565b80601f01602080910402602001604051908101604052809291908181526020018280546102a89061108e565b80156102f55780601f106102ca576101008083540402835291602001916102f5565b820191906000526020600020905b8154815290600101906020018083116102d857829003601f168201915b50505050508152602001906001019061025d565b505050509050919050565b6000808373ffffffffffffffffffffffffffffffffffffffff1673ffffffffffffffffffffffffffffffffffffffff168152602001908152602001600020819080600181540180825580915050600190039060005260206000200160009091909190915090816103849190611275565b505050565b6000600160003373ffffffffffffffffffffffffffffffffffffffff1673ffffffffffffffffffffffffffffffffffffffff16815260200190815260200160002060008373ffffffffffffffffffffffffffffffffffffffff1673ffffffffffffffffffffffffffffffffffffffff16815260200190815260200160002060006101000a81548160ff02191690831515021790555060005b600260003373ffffffffffffffffffffffffffffffffffffffff1673ffffffffffffffffffffffffffffffffffffffff168152602001908152602001600020805490508110156105a1578173ffffffffffffffffffffffffffffffffffffffff16600260003373ffffffffffffffffffffffffffffffffffffffff1673ffffffffffffffffffffffffffffffffffffffff16815260200190815260200160002082815481106104d3576104d2611347565b5b9060005260206000200160000160009054906101000a900473ffffffffffffffffffffffffffffffffffffffff1673ffffffffffffffffffffffffffffffffffffffff1603610594576000600260003373ffffffffffffffffffffffffffffffffffffffff1673ffffffffffffffffffffffffffffffffffffffff168152602001908152602001600020828154811061056f5761056e611347565b5b9060005260206000200160000160146101000a81548160ff0219169083151502179055505b8080600101915050610421565b5050565b6060600260003373ffffffffffffffffffffffffffffffffffffffff1673ffffffffffffffffffffffffffffffffffffffff168152602001908152602001600020805480602002602001604051908101604052809291908181526020016000905b828210156106a5578382906000526020600020016040518060400160405290816000820160009054906101000a900473ffffffffffffffffffffffffffffffffffffffff1673ffffffffffffffffffffffffffffffffffffffff1673ffffffffffffffffffffffffffffffffffffffff1681526020016000820160149054906101000a900460ff16151515158152505081526020019060010190610606565b50505050905090565b60018060003373ffffffffffffffffffffffffffffffffffffffff1673ffffffffffffffffffffffffffffffffffffffff16815260200190815260200160002060008373ffffffffffffffffffffffffffffffffffffffff1673ffffffffffffffffffffffffffffffffffffffff16815260200190815260200160002060006101000a81548160ff021916908315150217905550600360003373ffffffffffffffffffffffffffffffffffffffff1673ffffffffffffffffffffffffffffffffffffffff16815260200190815260200160002060008273ffffffffffffffffffffffffffffffffffffffff1673ffffffffffffffffffffffffffffffffffffffff16815260200190815260200160002060009054906101000a900460ff161561095a5760005b600260003373ffffffffffffffffffffffffffffffffffffffff1673ffffffffffffffffffffffffffffffffffffffff16815260200190815260200160002080549050811015610954578173ffffffffffffffffffffffffffffffffffffffff16600260003373ffffffffffffffffffffffffffffffffffffffff1673ffffffffffffffffffffffffffffffffffffffff168152602001908152602001600020828154811061088657610885611347565b5b9060005260206000200160000160009054906101000a900473ffffffffffffffffffffffffffffffffffffffff1673ffffffffffffffffffffffffffffffffffffffff1603610947576001600260003373ffffffffffffffffffffffffffffffffffffffff1673ffffffffffffffffffffffffffffffffffffffff168152602001908152602001600020828154811061092257610921611347565b5b9060005260206000200160000160146101000a81548160ff0219169083151502179055505b80806001019150506107d4565b50610aeb565b600260003373ffffffffffffffffffffffffffffffffffffffff1673ffffffffffffffffffffffffffffffffffffffff16815260200190815260200160002060405180604001604052808373ffffffffffffffffffffffffffffffffffffffff168152602001600115158152509080600181540180825580915050600190039060005260206000200160009091909190915060008201518160000160006101000a81548173ffffffffffffffffffffffffffffffffffffffff021916908373ffffffffffffffffffffffffffffffffffffffff16021790555060208201518160000160146101000a81548160ff02191690831515021790555050506001600360003373ffffffffffffffffffffffffffffffffffffffff1673ffffffffffffffffffffffffffffffffffffffff16815260200190815260200160002060008373ffffffffffffffffffffffffffffffffffffffff1673ffffffffffffffffffffffffffffffffffffffff16815260200190815260200160002060006101000a81548160ff0219169083151502179055505b50565b6000604051905090565b600080fd5b600080fd5b600073ffffffffffffffffffffffffffffffffffffffff82169050919050565b6000610b2d82610b02565b9050919050565b610b3d81610b22565b8114610b4857600080fd5b50565b600081359050610b5a81610b34565b92915050565b600060208284031215610b7657610b75610af8565b5b6000610b8484828501610b4b565b91505092915050565b600081519050919050565b600082825260208201905092915050565b6000819050602082019050919050565b600081519050919050565b600082825260208201905092915050565b60005b83811015610bf3578082015181840152602081019050610bd8565b60008484015250505050565b6000601f19601f8301169050919050565b6000610c1b82610bb9565b610c258185610bc4565b9350610c35818560208601610bd5565b610c3e81610bff565b840191505092915050565b6000610c558383610c10565b905092915050565b6000602082019050919050565b6000610c7582610b8d565b610c7f8185610b98565b935083602082028501610c9185610ba9565b8060005b85811015610ccd5784840389528151610cae8582610c49565b9450610cb983610c5d565b925060208a01995050600181019050610c95565b50829750879550505050505092915050565b60006020820190508181036000830152610cf98184610c6a565b905092915050565b600080fd5b600080fd5b7f4e487b7100000000000000000000000000000000000000000000000000000000600052604160045260246000fd5b610d4382610bff565b810181811067ffffffffffffffff82111715610d6257610d61610d0b565b5b80604052505050565b6000610d75610aee565b9050610d818282610d3a565b919050565b600067ffffffffffffffff821115610da157610da0610d0b565b5b610daa82610bff565b9050602081019050919050565b82818337600083830152505050565b6000610dd9610dd484610d86565b610d6b565b905082815260208101848484011115610df557610df4610d06565b5b610e00848285610db7565b509392505050565b600082601f830112610e1d57610e1c610d01565b5b8135610e2d848260208601610dc6565b91505092915050565b60008060408385031215610e4d57610e4c610af8565b5b6000610e5b85828601610b4b565b925050602083013567ffffffffffffffff811115610e7c57610e7b610afd565b5b610e8885828601610e08565b9150509250929050565b600081519050919050565b600082825260208201905092915050565b6000819050602082019050919050565b610ec781610b22565b82525050565b60008115159050919050565b610ee281610ecd565b82525050565b604082016000820151610efe6000850182610ebe565b506020820151610f116020850182610ed9565b50505050565b6000610f238383610ee8565b60408301905092915050565b6000602082019050919050565b6000610f4782610e92565b610f518185610e9d565b9350610f5c83610eae565b8060005b83811015610f8d578151610f748882610f17565b9750610f7f83610f2f565b925050600181019050610f60565b5085935050505092915050565b60006020820190508181036000830152610fb48184610f3c565b905092915050565b600082825260208201905092915050565b7f596f7520646f206e6f7420686176652061636365737320746f2076696577207460008201527f6869730000000000000000000000000000000000000000000000000000000000602082015250565b6000611029602383610fbc565b915061103482610fcd565b604082019050919050565b600060208201905081810360008301526110588161101c565b9050919050565b7f4e487b7100000000000000000000000000000000000000000000000000000000600052602260045260246000fd5b600060028204905060018216806110a657607f821691505b6020821081036110b9576110b861105f565b5b50919050565b60008190508160005260206000209050919050565b60006020601f8301049050919050565b600082821b905092915050565b6000600883026111217fffffffffffffffffffffffffffffffffffffffffffffffffffffffffffffffff826110e4565b61112b86836110e4565b95508019841693508086168417925050509392505050565b6000819050919050565b6000819050919050565b600061117261116d61116884611143565b61114d565b611143565b9050919050565b6000819050919050565b61118c83611157565b6111a061119882611179565b8484546110f1565b825550505050565b600090565b6111b56111a8565b6111c0818484611183565b505050565b5b818110156111e4576111d96000826111ad565b6001810190506111c6565b5050565b601f821115611229576111fa816110bf565b611203846110d4565b81016020851015611212578190505b61122661121e856110d4565b8301826111c5565b50505b505050565b600082821c905092915050565b600061124c6000198460080261122e565b1980831691505092915050565b6000611265838361123b565b9150826002028217905092915050565b61127e82610bb9565b67ffffffffffffffff81111561129757611296610d0b565b5b6112a1825461108e565b6112ac8282856111e8565b600060209050601f8311600181146112df57600084156112cd578287015190505b6112d78582611259565b86555061133f565b601f1984166112ed866110bf565b60005b82811015611315578489015182556001820191506020850194506020810190506112f0565b86831015611332578489015161132e601f89168261123b565b8355505b6001600288020188555050505b505050505050565b7f4e487b7100000000000000000000000000000000000000000000000000000000600052603260045260246000fdfea2646970667358221220c1ff42e7ac190adb95b94f1baeeea53f1c6b6e8a346275630ba46d5bddd1705264736f6c634300081c0033",
  "linkReferences": {},
  "deployedLinkReferences": {}
}